:100000000C9444010C9456010C9456010C94560126
:100010000C9456010C9456010C9456010C94560104
:100020000C9456010C9456010C9456010C945601F4
:100030000C9456010C9456010C9456010C945601E4
:100040000C9456010C9456010C9456010C945601D4
:100050000C9456010C9456010C9456010C945601C4
:100060000C9456010C945601003C66667E666666EA
:10007000003E66663E66663E003C66060606663CD8
:10008000003E66666666663E007E06063E06067EA4
:10009000007E06063E060606003C66060676663CC0
:1000A000006666667E666666003C18181818183C7E
:1000B000007830303036361C0066361E0E1E36662E
:1000C000000606060606067E00C6EEFED6C6C6C6B4
:1000D00000C6CEDEF6E6C6C6003C66666666663CD0
:1000E000003E6666663E0606003C666666763C60D6
:1000F000003E66663E1E3666003C66063C60663C18
:10010000007E5A1818181818006666666666667CBF
:100110000066666666663C1800C6C6C6D6FEEEC6B3
:1001200000C6C66C386CC6C6006666663C181818F1
:10013000007E6030180C067E000000000000000009
:100140000000003C607C667C000606063E66663E5B
:100150000000003C6606663C006060607C66667C71
:100160000000003C667E063C00386C0C0C3E0C0C1B
:1001700000007C66667C603C000606063E6666669D
:10018000000018001818183C003000303036361CBB
:1001900000060666361E3666001818181818181855
:1001A000000000C6EEFED6D60000003E7E66666603
:1001B0000000003C6666663C00003E66663E060641
:1001C00000003C36363CB0F00000003E6666060695
:1001D0000000007C023C403E000018187E181818F1
:1001E000000000666666667C0000000066663C18DB
:1001F000000000C6D6D6D67C000000663C183C66DF
:1002000000000066667C603C0000003C30180C3C3E
:10021000003C66766E66663C0018181C1818187E3E
:10022000003C6660300C067E003C66603860663CD0
:1002300000303834327E3030007E063E6060663CEE
:10024000003C66063E66663C007E66303018181834
:10025000003C66663C66663C003C66667C60663CCC
:10026000003C6660381800180044EEFEFE7C381032
:1002700000182808080C0E060010307EFE7E301094
:10028000001018FCFEFC181011241FBECFEFD8E0A0
:10029000DEBFCDBF21E0A0E0B1E001C01D92A032E1
:1002A000B207E1F70E947A010C944D040C9400000F
:1002B000CF93DF93CDB7DEB728970FB6F894DEBFA4
:1002C0000FBECDBF48E050E0BC01CE0101960E94B8
:1002D000440429813A814B815C816D817E818F81CB
:1002E000988528960FB6F894DEBF0FBECDBFDF917C
:1002F000CF9108950E9430030E94F70380E692E0B8
:100300000E945801022F132F242F352F462F572FCD
:10031000682F792F80E00E94530380E692E00E94CC
:100320005801022F132F242F352F462F572F682FB8
:10033000792F81E00E94530380E692E00E945801E9
:10034000022F132F242F352F462F572F682F792F49
:1003500082E00E94530380E692E00E945801022F3F
:10036000132F242F352F462F572F682F792F83E0F7
:100370000E9453030E94F7032FEF83E294EF215072
:1003800080409040E1F700C0000080E192E00E94D0
:100390005801022F132F242F352F462F572F682F48
:1003A000792F80E00E9453030E94F7032FEF83ED23
:1003B00090E3215080409040E1F700C0000088E2C7
:1003C00092E00E945801022F132F242F352F462F21
:1003D000572F682F792F81E00E9453030E94F70363
:1003E0002FEF83ED90E3215080409040E1F700C073
:1003F000000080E292E00E945801022F132F242F68
:10040000352F462F572F682F792F82E00E945303F4
:100410000E94F7032FEF83ED90E32150804090403E
:10042000E1F700C0000088E592E00E945801022F29
:10043000132F242F352F462F572F682F792F83E026
:100440000E9453030E94F7032FEF83ED90E32150A6
:1004500080409040E1F700C0000088EA90E00E94F0
:100460005801022F132F242F352F462F572F682F77
:10047000792F80E00E94530388E692E00E945801A1
:10048000022F132F242F352F462F572F682F792F08
:1004900081E00E94530388E291E00E945801022FFC
:1004A000132F242F352F462F572F682F792F82E0B7
:1004B0000E94530380EB90E00E945801022F132FFB
:1004C000242F352F462F572F682F792F83E00E9436
:1004D00053030E94F7032FEF83E294EF21508040F3
:1004E0009040E1F700C00000C8E1D0E081E00E9448
:1004F000C0030E94F7032FEF81EE94E0215080406B
:100500009040E1F700C00000219781F7C8E1D0E0FA
:1005100081E00E948E030E94F7032FEF81EE94E0AA
:10052000215080409040E1F700C00000219781F702
:100530002FEF83E294EF215080409040E1F700C01C
:100540000000DCCE8EBD0DB407FEFDCF089584B152
:100550008C6284B92A9A24982C9A8CB580658CBDBB
:100560000895EF92FF920F931F93CF93DF93843000
:1005700048F5F42EE62E2A98082F10E003301105D6
:100580005CF4E80180E00E94A20280E00E94A202E6
:100590002196C330D105B1F78E2D0E94A2028F2D76
:1005A0000E94A2021016110664F4C0E0D0E080E0C0
:1005B0000E94A20280E00E94A20221960C171D0751
:1005C000B1F72A9ADF91CF911F910F91FF90EF9091
:1005D0000895843028F4683018F46F5F0E94B102E7
:1005E0000895843020F4462F69E00E94B1020895F6
:1005F000843038F4462F603108F04FE06AE00E9402
:10060000B1020895843038F4462F683008F047E08E
:100610006BE00E94B1020895843030F4462F6111DE
:1006200041E06CE00E94B1020895843030F4462F1E
:10063000611141E06FE00E94B102089520E030E0D6
:1006400048E0849FC001112480509F4FFC01E20FBD
:10065000F31F10822F5F3F4F28303105B9F70895FF
:10066000CF930E94A702C0E08C2F0E941E0361E07E
:100670008C2F0E940C0360E08C2F0E94150360E019
:100680008C2F0E94F10261E08C2F0E94F80267E03B
:100690008C2F0E9402038C2F0E941E03CF5FC43058
:1006A00019F7CF910895BF92CF92DF92EF92FF9208
:1006B0000F931F93CF93DF93D22FC32FC42EB52E4A
:1006C000D62E972FE7E0F0E048E0849F90011124B8
:1006D000D901A050BF4F7D0197012E0F3F1FD901B7
:1006E0000C93202F312F4D2F5C2F6C2D7B2D8D2DBA
:1006F00008E00E942804022F132FD42FC52FC62EE6
:10070000B72ED82E319740F7DF91CF911F910F91DF
:10071000FF90EF90DF90CF90BF90089580E090E041
:10072000FC01E050FF4F30812081220F2083208583
:100730004085440F40874085331F3327331F342BB8
:10074000308730894089440F408B4089221F2227FF
:10075000221F242B208B208D408D440F408F408DF5
:10076000331F3327331F342B308F3081221F222732
:10077000221F232B208301968830910589F6089546
:1007800040E050E0FA01E050FF4F808D908D96954B
:10079000908F908920892695208B608970E8879FAB
:1007A00090011124262B208B80852085269520877B
:1007B000608570E8979F90011124262B20879081F7
:1007C000208126952083608170E8879F9001112405
:1007D000262B2083208D30E8939FC0011124822B8B
:1007E000808F4F5F5F4F4830510561F60895EF925B
:1007F000FF920F931F93CF93DF9300E010E011C09F
:10080000F701EC0FFD1F40816C2F802F0E94E90241
:100810002196C830D105A1F70F5F1F4F0430110595
:1008200071F0C0E0D0E0C801880F991F880F991FB0
:10083000880F991F9C0120503F4F7901E1CFDF9134
:10084000CF911F910F91FF90EF90089597FB10F8B3
:10085000169400080F93083098F00850232F342F77
:10086000452F562F672F782F892F902DF4CF059481
:1008700097958795779567955795479537952795D8
:100880000A95AAF70F910895FB01DC0102C00590BB
:0E0890000D9241505040D8F70895F894FFCFD4
:00000001FF
